{
  "address": "0x19Db9FaDCaE1f7B06d266a370BabDCA669828de4",
  "abi": [
    {
      "inputs": [
        {
          "internalType": "address",
          "name": "_token",
          "type": "address"
        },
        {
          "internalType": "uint256",
          "name": "_reward",
          "type": "uint256"
        },
        {
          "internalType": "uint256",
          "name": "_interval",
          "type": "uint256"
        }
      ],
      "stateMutability": "nonpayable",
      "type": "constructor"
    },
    {
      "anonymous": false,
      "inputs": [
        {
          "indexed": true,
          "internalType": "address",
          "name": "user",
          "type": "address"
        },
        {
          "indexed": true,
          "internalType": "uint256",
          "name": "amount",
          "type": "uint256"
        }
      ],
      "name": "Deposit",
      "type": "event"
    },
    {
      "anonymous": false,
      "inputs": [
        {
          "indexed": true,
          "internalType": "address",
          "name": "previousOwner",
          "type": "address"
        },
        {
          "indexed": true,
          "internalType": "address",
          "name": "newOwner",
          "type": "address"
        }
      ],
      "name": "OwnershipTransferred",
      "type": "event"
    },
    {
      "anonymous": false,
      "inputs": [
        {
          "indexed": true,
          "internalType": "uint256",
          "name": "amount",
          "type": "uint256"
        }
      ],
      "name": "Recall",
      "type": "event"
    },
    {
      "anonymous": false,
      "inputs": [
        {
          "indexed": true,
          "internalType": "address",
          "name": "user",
          "type": "address"
        },
        {
          "indexed": true,
          "internalType": "uint256",
          "name": "amount",
          "type": "uint256"
        },
        {
          "indexed": false,
          "internalType": "uint256",
          "name": "yieldTokens",
          "type": "uint256"
        }
      ],
      "name": "Withdrawal",
      "type": "event"
    },
    {
      "inputs": [],
      "name": "T",
      "outputs": [
        {
          "internalType": "uint256",
          "name": "",
          "type": "uint256"
        }
      ],
      "stateMutability": "view",
      "type": "function"
    },
    {
      "inputs": [
        {
          "internalType": "uint256",
          "name": "_amount",
          "type": "uint256"
        }
      ],
      "name": "deposit",
      "outputs": [],
      "stateMutability": "nonpayable",
      "type": "function"
    },
    {
      "inputs": [
        {
          "internalType": "address",
          "name": "_user",
          "type": "address"
        }
      ],
      "name": "getBalance",
      "outputs": [
        {
          "internalType": "uint256",
          "name": "balance",
          "type": "uint256"
        }
      ],
      "stateMutability": "view",
      "type": "function"
    },
    {
      "inputs": [],
      "name": "getR",
      "outputs": [
        {
          "internalType": "uint256",
          "name": "",
          "type": "uint256"
        }
      ],
      "stateMutability": "nonpayable",
      "type": "function"
    },
    {
      "inputs": [],
      "name": "getR1",
      "outputs": [
        {
          "internalType": "uint256",
          "name": "",
          "type": "uint256"
        }
      ],
      "stateMutability": "view",
      "type": "function"
    },
    {
      "inputs": [],
      "name": "getR2",
      "outputs": [
        {
          "internalType": "uint256",
          "name": "",
          "type": "uint256"
        }
      ],
      "stateMutability": "view",
      "type": "function"
    },
    {
      "inputs": [],
      "name": "getR3",
      "outputs": [
        {
          "internalType": "uint256",
          "name": "",
          "type": "uint256"
        }
      ],
      "stateMutability": "view",
      "type": "function"
    },
    {
      "inputs": [],
      "name": "getStake",
      "outputs": [
        {
          "internalType": "uint256",
          "name": "",
          "type": "uint256"
        }
      ],
      "stateMutability": "view",
      "type": "function"
    },
    {
      "inputs": [],
      "name": "owner",
      "outputs": [
        {
          "internalType": "address",
          "name": "",
          "type": "address"
        }
      ],
      "stateMutability": "view",
      "type": "function"
    },
    {
      "inputs": [],
      "name": "recall",
      "outputs": [],
      "stateMutability": "nonpayable",
      "type": "function"
    },
    {
      "inputs": [],
      "name": "renounceOwnership",
      "outputs": [],
      "stateMutability": "nonpayable",
      "type": "function"
    },
    {
      "inputs": [],
      "name": "t0",
      "outputs": [
        {
          "internalType": "uint256",
          "name": "",
          "type": "uint256"
        }
      ],
      "stateMutability": "view",
      "type": "function"
    },
    {
      "inputs": [],
      "name": "token",
      "outputs": [
        {
          "internalType": "address",
          "name": "",
          "type": "address"
        }
      ],
      "stateMutability": "view",
      "type": "function"
    },
    {
      "inputs": [
        {
          "internalType": "address",
          "name": "newOwner",
          "type": "address"
        }
      ],
      "name": "transferOwnership",
      "outputs": [],
      "stateMutability": "nonpayable",
      "type": "function"
    },
    {
      "inputs": [],
      "name": "withdraw",
      "outputs": [],
      "stateMutability": "nonpayable",
      "type": "function"
    }
  ],
  "transactionHash": "0x0e25ba98b2c2ed21012311786d31994534fc3f082c0987dab2851197506bc5eb",
  "args": [
    "0x1C14F806244C1E96e5611548ed7961511fE91076",
    "10000000000000000000000",
    "86400"
  ],
  "numDeployments": 1,
  "solcInputHash": "ca4f37c8e2d89c4ea282665028813c4d",
  "bytecode": "0x60e06040523480156200001157600080fd5b5060405162001acc38038062001acc833981810160405281019062000037919062000211565b620000576200004b6200011760201b60201c565b6200011f60201b60201c565b600180819055508273ffffffffffffffffffffffffffffffffffffffff1660808173ffffffffffffffffffffffffffffffffffffffff1660601b815250508060a081815250504260c08181525050600a600283620000b69190620002a5565b620000c291906200026d565b600381905550600a600383620000d99190620002a5565b620000e591906200026d565b600481905550600a600583620000fc9190620002a5565b6200010891906200026d565b600581905550505050620003db565b600033905090565b60008060009054906101000a900473ffffffffffffffffffffffffffffffffffffffff169050816000806101000a81548173ffffffffffffffffffffffffffffffffffffffff021916908373ffffffffffffffffffffffffffffffffffffffff1602179055508173ffffffffffffffffffffffffffffffffffffffff168173ffffffffffffffffffffffffffffffffffffffff167f8be0079c531659141344cd1fd0a4f28419497f9722a3daafe3b4186f6b6457e060405160405180910390a35050565b600081519050620001f481620003a7565b92915050565b6000815190506200020b81620003c1565b92915050565b6000806000606084860312156200022d576200022c620003a2565b5b60006200023d86828701620001e3565b93505060206200025086828701620001fa565b92505060406200026386828701620001fa565b9150509250925092565b60006200027a826200033a565b915062000287836200033a565b9250826200029a576200029962000373565b5b828204905092915050565b6000620002b2826200033a565b9150620002bf836200033a565b9250817fffffffffffffffffffffffffffffffffffffffffffffffffffffffffffffffff0483118215151615620002fb57620002fa62000344565b5b828202905092915050565b600062000313826200031a565b9050919050565b600073ffffffffffffffffffffffffffffffffffffffff82169050919050565b6000819050919050565b7f4e487b7100000000000000000000000000000000000000000000000000000000600052601160045260246000fd5b7f4e487b7100000000000000000000000000000000000000000000000000000000600052601260045260246000fd5b600080fd5b620003b28162000306565b8114620003be57600080fd5b50565b620003cc816200033a565b8114620003d857600080fd5b50565b60805160601c60a05160c0516116556200047760003960008181610339015281816106c6015281816108e80152818161094b01528181610b9a01528181610c210152610c830152600081816102900152818161030c015281816106a50152818161091e01528181610b6d01528181610bf40152610c560152600081816105070152818161073201528181610a090152610d9301526116556000f3fe608060405234801561001057600080fd5b50600436106100f55760003560e01c8063c116690c11610097578063f637b63211610066578063f637b63214610204578063f8b2cb4f14610222578063fc0c546a14610252578063fc0e3d9014610270576100f5565b8063c116690c146101a2578063c9be2d2e146101c0578063d4270d60146101de578063f2fde38b146101e8576100f5565b8063715018a6116100d3578063715018a6146101405780638da5cb5b1461014a578063b6b55f2514610168578063bed8d79914610184576100f5565b80632bc80f3a146100fa57806330ee4965146101185780633ccfd60b14610136575b600080fd5b61010261028e565b60405161010f9190611280565b60405180910390f35b6101206102b2565b60405161012d9190611280565b60405180910390f35b61013e6102bc565b005b610148610618565b005b61015261062c565b60405161015f9190611105565b60405180910390f35b610182600480360381019061017d9190610fa2565b610655565b005b61018c6108dc565b6040516101999190611280565b60405180910390f35b6101aa6108e6565b6040516101b79190611280565b60405180910390f35b6101c861090a565b6040516101d59190611280565b60405180910390f35b6101e6610914565b005b61020260048036038101906101fd9190610f48565b610ae5565b005b61020c610b69565b6040516102199190611280565b60405180910390f35b61023c60048036038101906102379190610f48565b610d48565b6040516102499190611280565b60405180910390f35b61025a610d91565b6040516102679190611105565b60405180910390f35b610278610db5565b6040516102859190611280565b60405180910390f35b7f000000000000000000000000000000000000000000000000000000000000000081565b6000600554905090565b60026001541415610302576040517f08c379a00000000000000000000000000000000000000000000000000000000081526004016102f990611240565b60405180910390fd5b60026001819055507f000000000000000000000000000000000000000000000000000000000000000060026103379190611333565b7f000000000000000000000000000000000000000000000000000000000000000061036291906112ac565b4210156103a4576040517f08c379a000000000000000000000000000000000000000000000000000000000815260040161039b90611200565b60405180910390fd5b6000600660003373ffffffffffffffffffffffffffffffffffffffff1673ffffffffffffffffffffffffffffffffffffffff1681526020019081526020016000205411610426576040517f08c379a000000000000000000000000000000000000000000000000000000000815260040161041d906111a0565b60405180910390fd5b6000600660003373ffffffffffffffffffffffffffffffffffffffff1673ffffffffffffffffffffffffffffffffffffffff16815260200190815260200160002054905060006007548261047a9190611302565b610482610b69565b61048c9190611333565b905080600260008282546104a0919061138d565b925050819055506000600660003373ffffffffffffffffffffffffffffffffffffffff1673ffffffffffffffffffffffffffffffffffffffff1681526020019081526020016000208190555081600760008282546104fe919061138d565b925050819055507f000000000000000000000000000000000000000000000000000000000000000073ffffffffffffffffffffffffffffffffffffffff1663a9059cbb33838561054e91906112ac565b6040518363ffffffff1660e01b815260040161056b929190611157565b602060405180830381600087803b15801561058557600080fd5b505af1158015610599573d6000803e3d6000fd5b505050506040513d601f19601f820116820180604052508101906105bd9190610f75565b50813373ffffffffffffffffffffffffffffffffffffffff167fdf273cb619d95419a9cd0ec88123a0538c85064229baa6363788f743fff90deb836040516106059190611280565b60405180910390a3505060018081905550565b610620610dbf565b61062a6000610e3d565b565b60008060009054906101000a900473ffffffffffffffffffffffffffffffffffffffff16905090565b6002600154141561069b576040517f08c379a000000000000000000000000000000000000000000000000000000000815260040161069290611240565b60405180910390fd5b60026001819055507f00000000000000000000000000000000000000000000000000000000000000007f00000000000000000000000000000000000000000000000000000000000000006106ef91906112ac565b4210610730576040517f08c379a000000000000000000000000000000000000000000000000000000000815260040161072790611220565b60405180910390fd5b7f000000000000000000000000000000000000000000000000000000000000000073ffffffffffffffffffffffffffffffffffffffff166323b872dd3330846040518463ffffffff1660e01b815260040161078d93929190611120565b602060405180830381600087803b1580156107a757600080fd5b505af11580156107bb573d6000803e3d6000fd5b505050506040513d601f19601f820116820180604052508101906107df9190610f75565b5080600660003373ffffffffffffffffffffffffffffffffffffffff1673ffffffffffffffffffffffffffffffffffffffff168152602001908152602001600020600082825461082f91906112ac565b92505081905550600660003373ffffffffffffffffffffffffffffffffffffffff1673ffffffffffffffffffffffffffffffffffffffff168152602001908152602001600020546007600082825461088791906112ac565b92505081905550803373ffffffffffffffffffffffffffffffffffffffff167fe1fffcc4923d04b559f4d29a8bfc6cda04eb5b0d3c460751c2402c5c5cc9109c60405160405180910390a36001808190555050565b6000600354905090565b7f000000000000000000000000000000000000000000000000000000000000000081565b6000600454905090565b61091c610dbf565b7f000000000000000000000000000000000000000000000000000000000000000060046109499190611333565b7f000000000000000000000000000000000000000000000000000000000000000061097491906112ac565b4210156109b6576040517f08c379a00000000000000000000000000000000000000000000000000000000081526004016109ad906111c0565b60405180910390fd5b6000600754146109fb576040517f08c379a00000000000000000000000000000000000000000000000000000000081526004016109f290611260565b60405180910390fd5b6000610a05610b69565b90507f000000000000000000000000000000000000000000000000000000000000000073ffffffffffffffffffffffffffffffffffffffff1663a9059cbb33836040518363ffffffff1660e01b8152600401610a62929190611157565b602060405180830381600087803b158015610a7c57600080fd5b505af1158015610a90573d6000803e3d6000fd5b505050506040513d601f19601f82011682018060405250810190610ab49190610f75565b50807f9613976b8f9eedf47ea9e8b209879e23f6192a3ccd3ed60925b11bd6e413601360405160405180910390a250565b610aed610dbf565b600073ffffffffffffffffffffffffffffffffffffffff168173ffffffffffffffffffffffffffffffffffffffff161415610b5d576040517f08c379a0000000000000000000000000000000000000000000000000000000008152600401610b5490611180565b60405180910390fd5b610b6681610e3d565b50565b60007f00000000000000000000000000000000000000000000000000000000000000006003610b989190611333565b7f0000000000000000000000000000000000000000000000000000000000000000610bc391906112ac565b421015610bf25760035460026000828254610bde91906112ac565b925050819055506000600381905550610d40565b7f00000000000000000000000000000000000000000000000000000000000000006003610c1f9190611333565b7f0000000000000000000000000000000000000000000000000000000000000000610c4a91906112ac565b4210158015610caf57507f00000000000000000000000000000000000000000000000000000000000000006004610c819190611333565b7f0000000000000000000000000000000000000000000000000000000000000000610cac91906112ac565b42105b15610cf157600454600354610cc491906112ac565b60026000828254610cd591906112ac565b9250508190555060006003819055506000600481905550610d3f565b600554600454600354610d0491906112ac565b610d0e91906112ac565b60026000828254610d1f91906112ac565b925050819055506000600381905550600060048190555060006005819055505b5b600254905090565b6000600660008373ffffffffffffffffffffffffffffffffffffffff1673ffffffffffffffffffffffffffffffffffffffff168152602001908152602001600020549050919050565b7f000000000000000000000000000000000000000000000000000000000000000081565b6000600754905090565b610dc7610f01565b73ffffffffffffffffffffffffffffffffffffffff16610de561062c565b73ffffffffffffffffffffffffffffffffffffffff1614610e3b576040517f08c379a0000000000000000000000000000000000000000000000000000000008152600401610e32906111e0565b60405180910390fd5b565b60008060009054906101000a900473ffffffffffffffffffffffffffffffffffffffff169050816000806101000a81548173ffffffffffffffffffffffffffffffffffffffff021916908373ffffffffffffffffffffffffffffffffffffffff1602179055508173ffffffffffffffffffffffffffffffffffffffff168173ffffffffffffffffffffffffffffffffffffffff167f8be0079c531659141344cd1fd0a4f28419497f9722a3daafe3b4186f6b6457e060405160405180910390a35050565b600033905090565b600081359050610f18816115da565b92915050565b600081519050610f2d816115f1565b92915050565b600081359050610f4281611608565b92915050565b600060208284031215610f5e57610f5d611467565b5b6000610f6c84828501610f09565b91505092915050565b600060208284031215610f8b57610f8a611467565b5b6000610f9984828501610f1e565b91505092915050565b600060208284031215610fb857610fb7611467565b5b6000610fc684828501610f33565b91505092915050565b610fd8816113c1565b82525050565b6000610feb60268361129b565b9150610ff68261146c565b604082019050919050565b600061100e60138361129b565b9150611019826114bb565b602082019050919050565b600061103160188361129b565b915061103c826114e4565b602082019050919050565b600061105460208361129b565b915061105f8261150d565b602082019050919050565b6000611077601d8361129b565b915061108282611536565b602082019050919050565b600061109a60198361129b565b91506110a58261155f565b602082019050919050565b60006110bd601f8361129b565b91506110c882611588565b602082019050919050565b60006110e060138361129b565b91506110eb826115b1565b602082019050919050565b6110ff816113ff565b82525050565b600060208201905061111a6000830184610fcf565b92915050565b60006060820190506111356000830186610fcf565b6111426020830185610fcf565b61114f60408301846110f6565b949350505050565b600060408201905061116c6000830185610fcf565b61117960208301846110f6565b9392505050565b6000602082019050818103600083015261119981610fde565b9050919050565b600060208201905081810360008301526111b981611001565b9050919050565b600060208201905081810360008301526111d981611024565b9050919050565b600060208201905081810360008301526111f981611047565b9050919050565b600060208201905081810360008301526112198161106a565b9050919050565b600060208201905081810360008301526112398161108d565b9050919050565b60006020820190508181036000830152611259816110b0565b9050919050565b60006020820190508181036000830152611279816110d3565b9050919050565b600060208201905061129560008301846110f6565b92915050565b600082825260208201905092915050565b60006112b7826113ff565b91506112c2836113ff565b9250827fffffffffffffffffffffffffffffffffffffffffffffffffffffffffffffffff038211156112f7576112f6611409565b5b828201905092915050565b600061130d826113ff565b9150611318836113ff565b92508261132857611327611438565b5b828204905092915050565b600061133e826113ff565b9150611349836113ff565b9250817fffffffffffffffffffffffffffffffffffffffffffffffffffffffffffffffff048311821515161561138257611381611409565b5b828202905092915050565b6000611398826113ff565b91506113a3836113ff565b9250828210156113b6576113b5611409565b5b828203905092915050565b60006113cc826113df565b9050919050565b60008115159050919050565b600073ffffffffffffffffffffffffffffffffffffffff82169050919050565b6000819050919050565b7f4e487b7100000000000000000000000000000000000000000000000000000000600052601160045260246000fd5b7f4e487b7100000000000000000000000000000000000000000000000000000000600052601260045260246000fd5b600080fd5b7f4f776e61626c653a206e6577206f776e657220697320746865207a65726f206160008201527f6464726573730000000000000000000000000000000000000000000000000000602082015250565b7f4e6f20746f6b656e73206465706f736974656400000000000000000000000000600082015250565b7f526563616c6c206e6f7420617661696c61626c65207965740000000000000000600082015250565b7f4f776e61626c653a2063616c6c6572206973206e6f7420746865206f776e6572600082015250565b7f5769746864726177616c73206e6f7420617661696c61626c6520796574000000600082015250565b7f4465706f73697420706572696f64206861732070617373656400000000000000600082015250565b7f5265656e7472616e637947756172643a207265656e7472616e742063616c6c00600082015250565b7f546f6b656e73207374696c6c207374616b656400000000000000000000000000600082015250565b6115e3816113c1565b81146115ee57600080fd5b50565b6115fa816113d3565b811461160557600080fd5b50565b611611816113ff565b811461161c57600080fd5b5056fea26469706673582212207cfaa56bfe1a76cc751baa4c18dcaf44a4419242babda18672a753ef12e8fb5b64736f6c63430008070033",
  "devdoc": {
    "author": "David Camps Novi",
    "details": "This contract uses a factory pattern to deploy a new wallet for each user",
    "kind": "dev",
    "methods": {
      "constructor": {
        "params": {
          "_interval": "description here"
        }
      },
      "owner()": {
        "details": "Returns the address of the current owner."
      },
      "renounceOwnership()": {
        "details": "Leaves the contract without owner. It will not be possible to call `onlyOwner` functions anymore. Can only be called by the current owner. NOTE: Renouncing ownership will leave the contract without an owner, thereby removing any functionality that is only available to the owner."
      },
      "transferOwnership(address)": {
        "details": "Transfers ownership of the contract to a new account (`newOwner`). Can only be called by the current owner."
      }
    },
    "title": "EVM wallet generator",
    "version": 1
  },
  "userdoc": {
    "kind": "user",
    "methods": {
      "constructor": {
        "notice": "@dev"
      },
      "deposit(uint256)": {
        "notice": "@dev"
      },
      "getR()": {
        "notice": "@dev"
      },
      "recall()": {
        "notice": "@dev"
      },
      "withdraw()": {
        "notice": "@dev"
      }
    },
    "version": 1
  },
  "storageLayout": {
    "storage": [
      {
        "astId": 7,
        "contract": "contracts/Bank.sol:Bank",
        "label": "_owner",
        "offset": 0,
        "slot": "0",
        "type": "t_address"
      },
      {
        "astId": 123,
        "contract": "contracts/Bank.sol:Bank",
        "label": "_status",
        "offset": 0,
        "slot": "1",
        "type": "t_uint256"
      },
      {
        "astId": 881,
        "contract": "contracts/Bank.sol:Bank",
        "label": "R",
        "offset": 0,
        "slot": "2",
        "type": "t_uint256"
      },
      {
        "astId": 883,
        "contract": "contracts/Bank.sol:Bank",
        "label": "R1",
        "offset": 0,
        "slot": "3",
        "type": "t_uint256"
      },
      {
        "astId": 885,
        "contract": "contracts/Bank.sol:Bank",
        "label": "R2",
        "offset": 0,
        "slot": "4",
        "type": "t_uint256"
      },
      {
        "astId": 887,
        "contract": "contracts/Bank.sol:Bank",
        "label": "R3",
        "offset": 0,
        "slot": "5",
        "type": "t_uint256"
      },
      {
        "astId": 891,
        "contract": "contracts/Bank.sol:Bank",
        "label": "balances",
        "offset": 0,
        "slot": "6",
        "type": "t_mapping(t_address,t_uint256)"
      },
      {
        "astId": 893,
        "contract": "contracts/Bank.sol:Bank",
        "label": "stake",
        "offset": 0,
        "slot": "7",
        "type": "t_uint256"
      }
    ],
    "types": {
      "t_address": {
        "encoding": "inplace",
        "label": "address",
        "numberOfBytes": "20"
      },
      "t_mapping(t_address,t_uint256)": {
        "encoding": "mapping",
        "key": "t_address",
        "label": "mapping(address => uint256)",
        "numberOfBytes": "32",
        "value": "t_uint256"
      },
      "t_uint256": {
        "encoding": "inplace",
        "label": "uint256",
        "numberOfBytes": "32"
      }
    }
  }
}